{
  "contractName": "ItemFactory",
  "abi": [
    {
      "inputs": [
        {
          "internalType": "uint256",
          "name": "",
          "type": "uint256"
        }
      ],
      "name": "items",
      "outputs": [
        {
          "internalType": "address",
          "name": "",
          "type": "address"
        }
      ],
      "stateMutability": "view",
      "type": "function",
      "constant": true
    },
    {
      "inputs": [
        {
          "internalType": "string",
          "name": "url",
          "type": "string"
        },
        {
          "internalType": "string",
          "name": "name",
          "type": "string"
        },
        {
          "internalType": "string",
          "name": "location",
          "type": "string"
        },
        {
          "internalType": "string",
          "name": "description",
          "type": "string"
        },
        {
          "internalType": "uint256",
          "name": "price",
          "type": "uint256"
        }
      ],
      "name": "createNewItem",
      "outputs": [],
      "stateMutability": "nonpayable",
      "type": "function"
    },
    {
      "inputs": [],
      "name": "getAllItems",
      "outputs": [
        {
          "internalType": "address[]",
          "name": "",
          "type": "address[]"
        }
      ],
      "stateMutability": "view",
      "type": "function",
      "constant": true
    }
  ],
  "bytecode": "0x608060405234801561001057600080fd5b50611f3f806100206000396000f3fe60806040523480156200001157600080fd5b5060043610620000465760003560e01c80630bdaf600146200004b5780634ba1d6aa146200006b578063bfb231d2146200008d575b600080fd5b62000069600480360381019062000063919062000404565b620000c3565b005b6200007562000175565b6040516200008491906200060a565b60405180910390f35b620000ab6004803603810190620000a591906200062e565b62000205565b604051620000ba919062000671565b60405180910390f35b6000858585853386604051620000d99062000245565b620000ea9695949392919062000732565b604051809103906000f08015801562000107573d6000803e3d6000fd5b5090506000819080600181540180825580915050600190039060005260206000200160009091909190916101000a81548173ffffffffffffffffffffffffffffffffffffffff021916908373ffffffffffffffffffffffffffffffffffffffff160217905550505050505050565b60606000805480602002602001604051908101604052809291908181526020018280548015620001fb57602002820191906000526020600020905b8160009054906101000a900473ffffffffffffffffffffffffffffffffffffffff1673ffffffffffffffffffffffffffffffffffffffff1681526020019060010190808311620001b0575b5050505050905090565b600081815481106200021657600080fd5b906000526020600020016000915054906101000a900473ffffffffffffffffffffffffffffffffffffffff1681565b61174e80620007bc83390190565b6000604051905090565b600080fd5b600080fd5b600080fd5b600080fd5b6000601f19601f8301169050919050565b7f4e487b7100000000000000000000000000000000000000000000000000000000600052604160045260246000fd5b620002bc8262000271565b810181811067ffffffffffffffff82111715620002de57620002dd62000282565b5b80604052505050565b6000620002f362000253565b9050620003018282620002b1565b919050565b600067ffffffffffffffff82111562000324576200032362000282565b5b6200032f8262000271565b9050602081019050919050565b82818337600083830152505050565b6000620003626200035c8462000306565b620002e7565b9050828152602081018484840111156200038157620003806200026c565b5b6200038e8482856200033c565b509392505050565b600082601f830112620003ae57620003ad62000267565b5b8135620003c08482602086016200034b565b91505092915050565b6000819050919050565b620003de81620003c9565b8114620003ea57600080fd5b50565b600081359050620003fe81620003d3565b92915050565b600080600080600060a086880312156200042357620004226200025d565b5b600086013567ffffffffffffffff81111562000444576200044362000262565b5b620004528882890162000396565b955050602086013567ffffffffffffffff81111562000476576200047562000262565b5b620004848882890162000396565b945050604086013567ffffffffffffffff811115620004a857620004a762000262565b5b620004b68882890162000396565b935050606086013567ffffffffffffffff811115620004da57620004d962000262565b5b620004e88882890162000396565b9250506080620004fb88828901620003ed565b9150509295509295909350565b600081519050919050565b600082825260208201905092915050565b6000819050602082019050919050565b600073ffffffffffffffffffffffffffffffffffffffff82169050919050565b6000620005618262000534565b9050919050565b620005738162000554565b82525050565b600062000587838362000568565b60208301905092915050565b6000602082019050919050565b6000620005ad8262000508565b620005b9818562000513565b9350620005c68362000524565b8060005b83811015620005fd578151620005e1888262000579565b9750620005ee8362000593565b925050600181019050620005ca565b5085935050505092915050565b60006020820190508181036000830152620006268184620005a0565b905092915050565b6000602082840312156200064757620006466200025d565b5b60006200065784828501620003ed565b91505092915050565b6200066b8162000554565b82525050565b600060208201905062000688600083018462000660565b92915050565b600081519050919050565b600082825260208201905092915050565b60005b83811015620006ca578082015181840152602081019050620006ad565b83811115620006da576000848401525b50505050565b6000620006ed826200068e565b620006f9818562000699565b93506200070b818560208601620006aa565b620007168162000271565b840191505092915050565b6200072c81620003c9565b82525050565b600060c08201905081810360008301526200074e8189620006e0565b90508181036020830152620007648188620006e0565b905081810360408301526200077a8187620006e0565b90508181036060830152620007908186620006e0565b9050620007a1608083018562000660565b620007b060a083018462000721565b97965050505050505056fe60806040523480156200001157600080fd5b506040516200174e3803806200174e8339818101604052810190620000379190620004ce565b846000600201908051906020019062000052929190620001e1565b5083600060030190805190602001906200006e929190620001e1565b506200008086620000c160201b60201c565b6200009183620000e060201b60201c565b620000a36003620000ff60201b60201c565b620000b582826200013260201b60201c565b5050505050506200067a565b8060006001019080519060200190620000dc929190620001e1565b5050565b8060006004019080519060200190620000fb929190620001e1565b5050565b80600060050160006101000a81548160ff021916908360048111156200012a5762000129620005e6565b5b021790555050565b6000800160405180604001604052808473ffffffffffffffffffffffffffffffffffffffff16815260200183815250908060018154018082558091505060019003906000526020600020906002020160009091909190915060008201518160000160006101000a81548173ffffffffffffffffffffffffffffffffffffffff021916908373ffffffffffffffffffffffffffffffffffffffff1602179055506020820151816001015550505050565b828054620001ef9062000644565b90600052602060002090601f0160209004810192826200021357600085556200025f565b82601f106200022e57805160ff19168380011785556200025f565b828001600101855582156200025f579182015b828111156200025e57825182559160200191906001019062000241565b5b5090506200026e919062000272565b5090565b5b808211156200028d57600081600090555060010162000273565b5090565b6000604051905090565b600080fd5b600080fd5b600080fd5b600080fd5b6000601f19601f8301169050919050565b7f4e487b7100000000000000000000000000000000000000000000000000000000600052604160045260246000fd5b620002fa82620002af565b810181811067ffffffffffffffff821117156200031c576200031b620002c0565b5b80604052505050565b60006200033162000291565b90506200033f8282620002ef565b919050565b600067ffffffffffffffff821115620003625762000361620002c0565b5b6200036d82620002af565b9050602081019050919050565b60005b838110156200039a5780820151818401526020810190506200037d565b83811115620003aa576000848401525b50505050565b6000620003c7620003c18462000344565b62000325565b905082815260208101848484011115620003e657620003e5620002aa565b5b620003f38482856200037a565b509392505050565b600082601f830112620004135762000412620002a5565b5b815162000425848260208601620003b0565b91505092915050565b600073ffffffffffffffffffffffffffffffffffffffff82169050919050565b60006200045b826200042e565b9050919050565b6200046d816200044e565b81146200047957600080fd5b50565b6000815190506200048d8162000462565b92915050565b6000819050919050565b620004a88162000493565b8114620004b457600080fd5b50565b600081519050620004c8816200049d565b92915050565b60008060008060008060c08789031215620004ee57620004ed6200029b565b5b600087015167ffffffffffffffff8111156200050f576200050e620002a0565b5b6200051d89828a01620003fb565b965050602087015167ffffffffffffffff811115620005415762000540620002a0565b5b6200054f89828a01620003fb565b955050604087015167ffffffffffffffff811115620005735762000572620002a0565b5b6200058189828a01620003fb565b945050606087015167ffffffffffffffff811115620005a557620005a4620002a0565b5b620005b389828a01620003fb565b9350506080620005c689828a016200047c565b92505060a0620005d989828a01620004b7565b9150509295509295509295565b7f4e487b7100000000000000000000000000000000000000000000000000000000600052602160045260246000fd5b7f4e487b7100000000000000000000000000000000000000000000000000000000600052602260045260246000fd5b600060028204905060018216806200065d57607f821691505b6020821081141562000674576200067362000615565b5b50919050565b6110c4806200068a6000396000f3fe608060405234801561001057600080fd5b50600436106100625760003560e01c80630b3af7f91461006757806350c5f46714610083578063932354c11461009f578063c3c34c2c146100bb578063e735b48a146100d7578063fbbf93a0146100f3575b600080fd5b610081600480360381019061007c919061093a565b610111565b005b61009d60048036038101906100989190610aad565b610141565b005b6100b960048036038101906100b49190610aad565b61015e565b005b6100d560048036038101906100d09190610b8a565b6102d5565b005b6100f160048036038101906100ec9190610aad565b610384565b005b6100fb6103a1565b6040516101089190610e6a565b60405180910390f35b80600060050160006101000a81548160ff0219169083600481111561013957610138610d4e565b5b021790555050565b806000600101908051906020019061015a929190610816565b5050565b600080600001600160008001805490506101789190610ebb565b8154811061018957610188610eef565b5b90600052602060002090600202016040518060400160405290816000820160009054906101000a900473ffffffffffffffffffffffffffffffffffffffff1673ffffffffffffffffffffffffffffffffffffffff1673ffffffffffffffffffffffffffffffffffffffff16815260200160018201548152505090506001600481111561021857610217610d4e565b5b600060050160009054906101000a900460ff16600481111561023d5761023c610d4e565b5b14806102785750806000015173ffffffffffffffffffffffffffffffffffffffff163373ffffffffffffffffffffffffffffffffffffffff16145b6102b7576040517f08c379a00000000000000000000000000000000000000000000000000000000081526004016102ae90610fa1565b60405180910390fd5b81600060030190805190602001906102d0929190610816565b505050565b6000800160405180604001604052808473ffffffffffffffffffffffffffffffffffffffff16815260200183815250908060018154018082558091505060019003906000526020600020906002020160009091909190915060008201518160000160006101000a81548173ffffffffffffffffffffffffffffffffffffffff021916908373ffffffffffffffffffffffffffffffffffffffff1602179055506020820151816001015550505050565b806000600401908051906020019061039d929190610816565b5050565b6103a961089c565b600080600001600160008001805490506103c39190610ebb565b815481106103d4576103d3610eef565b5b90600052602060002090600202016040518060400160405290816000820160009054906101000a900473ffffffffffffffffffffffffffffffffffffffff1673ffffffffffffffffffffffffffffffffffffffff1673ffffffffffffffffffffffffffffffffffffffff1681526020016001820154815250509050806000015173ffffffffffffffffffffffffffffffffffffffff163373ffffffffffffffffffffffffffffffffffffffff16146104c1576040517f08c379a00000000000000000000000000000000000000000000000000000000081526004016104b89061100d565b60405180910390fd5b60006040518060c001604052908160008201805480602002602001604051908101604052809291908181526020016000905b8282101561058557838290600052602060002090600202016040518060400160405290816000820160009054906101000a900473ffffffffffffffffffffffffffffffffffffffff1673ffffffffffffffffffffffffffffffffffffffff1673ffffffffffffffffffffffffffffffffffffffff168152602001600182015481525050815260200190600101906104f3565b50505050815260200160018201805461059d9061105c565b80601f01602080910402602001604051908101604052809291908181526020018280546105c99061105c565b80156106165780601f106105eb57610100808354040283529160200191610616565b820191906000526020600020905b8154815290600101906020018083116105f957829003601f168201915b5050505050815260200160028201805461062f9061105c565b80601f016020809104026020016040519081016040528092919081815260200182805461065b9061105c565b80156106a85780601f1061067d576101008083540402835291602001916106a8565b820191906000526020600020905b81548152906001019060200180831161068b57829003601f168201915b505050505081526020016003820180546106c19061105c565b80601f01602080910402602001604051908101604052809291908181526020018280546106ed9061105c565b801561073a5780601f1061070f5761010080835404028352916020019161073a565b820191906000526020600020905b81548152906001019060200180831161071d57829003601f168201915b505050505081526020016004820180546107539061105c565b80601f016020809104026020016040519081016040528092919081815260200182805461077f9061105c565b80156107cc5780601f106107a1576101008083540402835291602001916107cc565b820191906000526020600020905b8154815290600101906020018083116107af57829003601f168201915b505050505081526020016005820160009054906101000a900460ff1660048111156107fa576107f9610d4e565b5b600481111561080c5761080b610d4e565b5b8152505091505090565b8280546108229061105c565b90600052602060002090601f016020900481019282610844576000855561088b565b82601f1061085d57805160ff191683800117855561088b565b8280016001018555821561088b579182015b8281111561088a57825182559160200191906001019061086f565b5b50905061089891906108e4565b5090565b6040518060c001604052806060815260200160608152602001606081526020016060815260200160608152602001600060048111156108de576108dd610d4e565b5b81525090565b5b808211156108fd5760008160009055506001016108e5565b5090565b6000604051905090565b600080fd5b600080fd5b6005811061092257600080fd5b50565b60008135905061093481610915565b92915050565b6000602082840312156109505761094f61090b565b5b600061095e84828501610925565b91505092915050565b600080fd5b600080fd5b6000601f19601f8301169050919050565b7f4e487b7100000000000000000000000000000000000000000000000000000000600052604160045260246000fd5b6109ba82610971565b810181811067ffffffffffffffff821117156109d9576109d8610982565b5b80604052505050565b60006109ec610901565b90506109f882826109b1565b919050565b600067ffffffffffffffff821115610a1857610a17610982565b5b610a2182610971565b9050602081019050919050565b82818337600083830152505050565b6000610a50610a4b846109fd565b6109e2565b905082815260208101848484011115610a6c57610a6b61096c565b5b610a77848285610a2e565b509392505050565b600082601f830112610a9457610a93610967565b5b8135610aa4848260208601610a3d565b91505092915050565b600060208284031215610ac357610ac261090b565b5b600082013567ffffffffffffffff811115610ae157610ae0610910565b5b610aed84828501610a7f565b91505092915050565b600073ffffffffffffffffffffffffffffffffffffffff82169050919050565b6000610b2182610af6565b9050919050565b610b3181610b16565b8114610b3c57600080fd5b50565b600081359050610b4e81610b28565b92915050565b6000819050919050565b610b6781610b54565b8114610b7257600080fd5b50565b600081359050610b8481610b5e565b92915050565b60008060408385031215610ba157610ba061090b565b5b6000610baf85828601610b3f565b9250506020610bc085828601610b75565b9150509250929050565b600081519050919050565b600082825260208201905092915050565b6000819050602082019050919050565b610bff81610b16565b82525050565b610c0e81610b54565b82525050565b604082016000820151610c2a6000850182610bf6565b506020820151610c3d6020850182610c05565b50505050565b6000610c4f8383610c14565b60408301905092915050565b6000602082019050919050565b6000610c7382610bca565b610c7d8185610bd5565b9350610c8883610be6565b8060005b83811015610cb9578151610ca08882610c43565b9750610cab83610c5b565b925050600181019050610c8c565b5085935050505092915050565b600081519050919050565b600082825260208201905092915050565b60005b83811015610d00578082015181840152602081019050610ce5565b83811115610d0f576000848401525b50505050565b6000610d2082610cc6565b610d2a8185610cd1565b9350610d3a818560208601610ce2565b610d4381610971565b840191505092915050565b7f4e487b7100000000000000000000000000000000000000000000000000000000600052602160045260246000fd5b60058110610d8e57610d8d610d4e565b5b50565b6000819050610d9f82610d7d565b919050565b6000610daf82610d91565b9050919050565b610dbf81610da4565b82525050565b600060c0830160008301518482036000860152610de28282610c68565b91505060208301518482036020860152610dfc8282610d15565b91505060408301518482036040860152610e168282610d15565b91505060608301518482036060860152610e308282610d15565b91505060808301518482036080860152610e4a8282610d15565b91505060a0830151610e5f60a0860182610db6565b508091505092915050565b60006020820190508181036000830152610e848184610dc5565b905092915050565b7f4e487b7100000000000000000000000000000000000000000000000000000000600052601160045260246000fd5b6000610ec682610b54565b9150610ed183610b54565b925082821015610ee457610ee3610e8c565b5b828203905092915050565b7f4e487b7100000000000000000000000000000000000000000000000000000000600052603260045260246000fd5b600082825260208201905092915050565b7f537461747573206973206e6f74205348495050494e47206f7220796f7520617260008201527f65206e6f74207468652063757272656e74206f776e6572210000000000000000602082015250565b6000610f8b603883610f1e565b9150610f9682610f2f565b604082019050919050565b60006020820190508181036000830152610fba81610f7e565b9050919050565b7f596f7520617265206e6f74207468652063757272656e74206f776e6572210000600082015250565b6000610ff7601e83610f1e565b915061100282610fc1565b602082019050919050565b6000602082019050818103600083015261102681610fea565b9050919050565b7f4e487b7100000000000000000000000000000000000000000000000000000000600052602260045260246000fd5b6000600282049050600182168061107457607f821691505b602082108114156110885761108761102d565b5b5091905056fea26469706673582212208e8a3326c458206e3dde6a8eef8700cc728889d71ee2634d89bfc0b50a575d3d64736f6c63430008090033a2646970667358221220e292a536097d0c6ac0fe713c6217cfa34a37000801d827b226f71483d66c08a164736f6c63430008090033",
  "immutableReferences": {},
  "source": "// SPDX-License-Identifier: GPL-3.0\npragma solidity ^0.8.9;\n\nimport './ProtectedItem.sol';\n\ncontract ItemFactory {\n    address[] public items;\n\n    function createNewItem(\n        string memory url,\n        string memory name,\n        string memory location,\n        string memory description,\n        // address ownerAddress,\n        uint256 price\n    ) public {\n        address newItem = address(\n            new ProtectedItem(url, name, location, description, msg.sender, price)\n        );\n\n        items.push(newItem);\n    }\n\n    function getAllItems() public view returns (address[] memory) {\n        return items;\n    }\n}\n",
  "sourcePath": "D:\\AUT\\Blockchain and Cryptocurrencies\\Auction-Hosting-Guarantee\\src\\ethereum\\contracts\\ItemFactory.sol",
  "compiler": {
    "name": "solc",
    "version": "0.8.9+commit.e5eed63a.Emscripten.clang"
  },
  "schemaVersion": "3.4.3",
  "updatedAt": "2021-10-06T12:33:41.361Z",
  "networkType": "ethereum",
  "devdoc": {
    "kind": "dev",
    "methods": {},
    "version": 1
  },
  "userdoc": {
    "kind": "user",
    "methods": {},
    "version": 1
  }
}