{
  "contractName": "ItemFactory",
  "abi": [
    {
      "anonymous": false,
      "inputs": [
        {
          "indexed": false,
          "internalType": "address",
          "name": "itemAddress",
          "type": "address"
        }
      ],
      "name": "AddNewItem",
      "type": "event"
    },
    {
      "inputs": [
        {
          "internalType": "uint256",
          "name": "",
          "type": "uint256"
        }
      ],
      "name": "items",
      "outputs": [
        {
          "internalType": "address",
          "name": "",
          "type": "address"
        }
      ],
      "stateMutability": "view",
      "type": "function",
      "constant": true
    },
    {
      "inputs": [
        {
          "internalType": "string",
          "name": "ipfsHash",
          "type": "string"
        },
        {
          "internalType": "string",
          "name": "name",
          "type": "string"
        },
        {
          "internalType": "string",
          "name": "location",
          "type": "string"
        },
        {
          "internalType": "string",
          "name": "description",
          "type": "string"
        },
        {
          "internalType": "string",
          "name": "ownerAddress",
          "type": "string"
        },
        {
          "internalType": "uint256",
          "name": "price",
          "type": "uint256"
        }
      ],
      "name": "createNewItem",
      "outputs": [],
      "stateMutability": "nonpayable",
      "type": "function"
    },
    {
      "inputs": [],
      "name": "getAllItems",
      "outputs": [
        {
          "internalType": "address[]",
          "name": "",
          "type": "address[]"
        }
      ],
      "stateMutability": "view",
      "type": "function",
      "constant": true
    }
  ],
  "bytecode": "0x608060405234801561001057600080fd5b50611fd2806100206000396000f3fe60806040523480156200001157600080fd5b5060043610620000465760003560e01c80634ba1d6aa146200004b578063bfb231d2146200006d578063fb1513a414620000a3575b600080fd5b62000055620000c3565b6040516200006491906200038f565b60405180910390f35b6200008b600480360381019062000085919062000402565b62000153565b6040516200009a919062000445565b60405180910390f35b620000c16004803603810190620000bb9190620005c4565b62000193565b005b606060008054806020026020016040519081016040528092919081815260200182805480156200014957602002820191906000526020600020905b8160009054906101000a900473ffffffffffffffffffffffffffffffffffffffff1673ffffffffffffffffffffffffffffffffffffffff1681526020019060010190808311620000fe575b5050505050905090565b600081815481106200016457600080fd5b906000526020600020016000915054906101000a900473ffffffffffffffffffffffffffffffffffffffff1681565b6000868686868686604051620001a9906200027f565b620001ba969594939291906200079f565b604051809103906000f080158015620001d7573d6000803e3d6000fd5b5090506000819080600181540180825580915050600190039060005260206000200160009091909190916101000a81548173ffffffffffffffffffffffffffffffffffffffff021916908373ffffffffffffffffffffffffffffffffffffffff1602179055507f0795a82202354bce013e5c5aa17af891bfeb89bca68dd12014137849ff6d271f816040516200026e919062000445565b60405180910390a150505050505050565b61176d806200083083390190565b600081519050919050565b600082825260208201905092915050565b6000819050602082019050919050565b600073ffffffffffffffffffffffffffffffffffffffff82169050919050565b6000620002e682620002b9565b9050919050565b620002f881620002d9565b82525050565b60006200030c8383620002ed565b60208301905092915050565b6000602082019050919050565b600062000332826200028d565b6200033e818562000298565b93506200034b83620002a9565b8060005b8381101562000382578151620003668882620002fe565b9750620003738362000318565b9250506001810190506200034f565b5085935050505092915050565b60006020820190508181036000830152620003ab818462000325565b905092915050565b6000604051905090565b600080fd5b600080fd5b6000819050919050565b620003dc81620003c7565b8114620003e857600080fd5b50565b600081359050620003fc81620003d1565b92915050565b6000602082840312156200041b576200041a620003bd565b5b60006200042b84828501620003eb565b91505092915050565b6200043f81620002d9565b82525050565b60006020820190506200045c600083018462000434565b92915050565b600080fd5b600080fd5b6000601f19601f8301169050919050565b7f4e487b7100000000000000000000000000000000000000000000000000000000600052604160045260246000fd5b620004b7826200046c565b810181811067ffffffffffffffff82111715620004d957620004d86200047d565b5b80604052505050565b6000620004ee620003b3565b9050620004fc8282620004ac565b919050565b600067ffffffffffffffff8211156200051f576200051e6200047d565b5b6200052a826200046c565b9050602081019050919050565b82818337600083830152505050565b60006200055d620005578462000501565b620004e2565b9050828152602081018484840111156200057c576200057b62000467565b5b6200058984828562000537565b509392505050565b600082601f830112620005a957620005a862000462565b5b8135620005bb84826020860162000546565b91505092915050565b60008060008060008060c08789031215620005e457620005e3620003bd565b5b600087013567ffffffffffffffff811115620006055762000604620003c2565b5b6200061389828a0162000591565b965050602087013567ffffffffffffffff811115620006375762000636620003c2565b5b6200064589828a0162000591565b955050604087013567ffffffffffffffff811115620006695762000668620003c2565b5b6200067789828a0162000591565b945050606087013567ffffffffffffffff8111156200069b576200069a620003c2565b5b620006a989828a0162000591565b935050608087013567ffffffffffffffff811115620006cd57620006cc620003c2565b5b620006db89828a0162000591565b92505060a0620006ee89828a01620003eb565b9150509295509295509295565b600081519050919050565b600082825260208201905092915050565b60005b83811015620007375780820151818401526020810190506200071a565b8381111562000747576000848401525b50505050565b60006200075a82620006fb565b62000766818562000706565b93506200077881856020860162000717565b62000783816200046c565b840191505092915050565b6200079981620003c7565b82525050565b600060c0820190508181036000830152620007bb81896200074d565b90508181036020830152620007d181886200074d565b90508181036040830152620007e781876200074d565b90508181036060830152620007fd81866200074d565b905081810360808301526200081381856200074d565b90506200082460a08301846200078e565b97965050505050505056fe60806040523480156200001157600080fd5b506040516200176d3803806200176d83398181016040528101906200003791906200042b565b846000600201908051906020019062000052929190620001a3565b5083600060030190805190602001906200006e929190620001a3565b506200008086620000c160201b60201c565b6200009183620000e060201b60201c565b620000a36003620000ff60201b60201c565b620000b582826200013260201b60201c565b505050505050620005f6565b8060006001019080519060200190620000dc929190620001a3565b5050565b8060006004019080519060200190620000fb929190620001a3565b5050565b80600060050160006101000a81548160ff021916908360048111156200012a576200012962000562565b5b021790555050565b600080016040518060400160405280848152602001838152509080600181540180825580915050600190039060005260206000209060020201600090919091909150600082015181600001908051906020019062000192929190620001a3565b506020820151816001015550505050565b828054620001b190620005c0565b90600052602060002090601f016020900481019282620001d5576000855562000221565b82601f10620001f057805160ff191683800117855562000221565b8280016001018555821562000221579182015b828111156200022057825182559160200191906001019062000203565b5b50905062000230919062000234565b5090565b5b808211156200024f57600081600090555060010162000235565b5090565b6000604051905090565b600080fd5b600080fd5b600080fd5b600080fd5b6000601f19601f8301169050919050565b7f4e487b7100000000000000000000000000000000000000000000000000000000600052604160045260246000fd5b620002bc8262000271565b810181811067ffffffffffffffff82111715620002de57620002dd62000282565b5b80604052505050565b6000620002f362000253565b9050620003018282620002b1565b919050565b600067ffffffffffffffff82111562000324576200032362000282565b5b6200032f8262000271565b9050602081019050919050565b60005b838110156200035c5780820151818401526020810190506200033f565b838111156200036c576000848401525b50505050565b600062000389620003838462000306565b620002e7565b905082815260208101848484011115620003a857620003a76200026c565b5b620003b58482856200033c565b509392505050565b600082601f830112620003d557620003d462000267565b5b8151620003e784826020860162000372565b91505092915050565b6000819050919050565b6200040581620003f0565b81146200041157600080fd5b50565b6000815190506200042581620003fa565b92915050565b60008060008060008060c087890312156200044b576200044a6200025d565b5b600087015167ffffffffffffffff8111156200046c576200046b62000262565b5b6200047a89828a01620003bd565b965050602087015167ffffffffffffffff8111156200049e576200049d62000262565b5b620004ac89828a01620003bd565b955050604087015167ffffffffffffffff811115620004d057620004cf62000262565b5b620004de89828a01620003bd565b945050606087015167ffffffffffffffff81111562000502576200050162000262565b5b6200051089828a01620003bd565b935050608087015167ffffffffffffffff81111562000534576200053362000262565b5b6200054289828a01620003bd565b92505060a06200055589828a0162000414565b9150509295509295509295565b7f4e487b7100000000000000000000000000000000000000000000000000000000600052602160045260246000fd5b7f4e487b7100000000000000000000000000000000000000000000000000000000600052602260045260246000fd5b60006002820490506001821680620005d957607f821691505b60208210811415620005f057620005ef62000591565b5b50919050565b61116780620006066000396000f3fe608060405234801561001057600080fd5b50600436106100935760003560e01c8063688d2beb11610066578063688d2beb1461011c578063b0d9e1a214610138578063d44626ca14610156578063e735b48a14610172578063f6ddac741461018e57610093565b8063011267d2146100985780630913348f146100b45780630b3af7f9146100d05780631328fd8f146100ec575b600080fd5b6100b260048036038101906100ad9190610b23565b6101aa565b005b6100ce60048036038101906100c99190610b7f565b610219565b005b6100ea60048036038101906100e59190610bed565b610236565b005b61010660048036038101906101019190610b7f565b610266565b6040516101139190610ecc565b60405180910390f35b61013660048036038101906101319190610b23565b610659565b005b6101406106e4565b60405161014d9190610f38565b60405180910390f35b610170600480360381019061016b9190610b7f565b6107b4565b005b61018c60048036038101906101879190610b7f565b610814565b005b6101a860048036038101906101a39190610f5a565b610831565b005b60008001604051806040016040528084815260200183815250908060018154018082558091505060019003906000526020600020906002020160009091909190915060008201518160000190805190602001906102089291906108a8565b506020820151816001015550505050565b80600060010190805190602001906102329291906108a8565b5050565b80600060050160006101000a81548160ff0219169083600481111561025e5761025d610db0565b5b021790555050565b61026e61092e565b816102776106e4565b805190602001208180519060200120146102c6576040517f08c379a00000000000000000000000000000000000000000000000000000000081526004016102bd9061101e565b60405180910390fd5b60006040518060c001604052908160008201805480602002602001604051908101604052809291908181526020016000905b828210156103c6578382906000526020600020906002020160405180604001604052908160008201805461032b9061106d565b80601f01602080910402602001604051908101604052809291908181526020018280546103579061106d565b80156103a45780601f10610379576101008083540402835291602001916103a4565b820191906000526020600020905b81548152906001019060200180831161038757829003601f168201915b50505050508152602001600182015481525050815260200190600101906102f8565b5050505081526020016001820180546103de9061106d565b80601f016020809104026020016040519081016040528092919081815260200182805461040a9061106d565b80156104575780601f1061042c57610100808354040283529160200191610457565b820191906000526020600020905b81548152906001019060200180831161043a57829003601f168201915b505050505081526020016002820180546104709061106d565b80601f016020809104026020016040519081016040528092919081815260200182805461049c9061106d565b80156104e95780601f106104be576101008083540402835291602001916104e9565b820191906000526020600020905b8154815290600101906020018083116104cc57829003601f168201915b505050505081526020016003820180546105029061106d565b80601f016020809104026020016040519081016040528092919081815260200182805461052e9061106d565b801561057b5780601f106105505761010080835404028352916020019161057b565b820191906000526020600020905b81548152906001019060200180831161055e57829003601f168201915b505050505081526020016004820180546105949061106d565b80601f01602080910402602001604051908101604052809291908181526020018280546105c09061106d565b801561060d5780601f106105e25761010080835404028352916020019161060d565b820191906000526020600020905b8154815290600101906020018083116105f057829003601f168201915b505050505081526020016005820160009054906101000a900460ff16600481111561063b5761063a610db0565b5b600481111561064d5761064c610db0565b5b81525050915050919050565b816106626106e4565b805190602001208180519060200120146106b1576040517f08c379a00000000000000000000000000000000000000000000000000000000081526004016106a89061101e565b60405180910390fd5b6004600060050160006101000a81548160ff021916908360048111156106da576106d9610db0565b5b0217905550505050565b60606000806000016001600080018054905061070091906110ce565b8154811061071157610710611102565b5b9060005260206000209060020201600001805461072d9061106d565b80601f01602080910402602001604051908101604052809291908181526020018280546107599061106d565b80156107a65780601f1061077b576101008083540402835291602001916107a6565b820191906000526020600020905b81548152906001019060200180831161078957829003601f168201915b505050505090508091505090565b600160048111156107c8576107c7610db0565b5b600060050160009054906101000a900460ff1660048111156107ed576107ec610db0565b5b146107f757600080fd5b80600060030190805190602001906108109291906108a8565b5050565b806000600401908051906020019061082d9291906108a8565b5050565b8161083a6106e4565b80519060200120818051906020012014610889576040517f08c379a00000000000000000000000000000000000000000000000000000000081526004016108809061101e565b60405180910390fd5b81600060030190805190602001906108a29291906108a8565b50505050565b8280546108b49061106d565b90600052602060002090601f0160209004810192826108d6576000855561091d565b82601f106108ef57805160ff191683800117855561091d565b8280016001018555821561091d579182015b8281111561091c578251825591602001919060010190610901565b5b50905061092a9190610976565b5090565b6040518060c001604052806060815260200160608152602001606081526020016060815260200160608152602001600060048111156109705761096f610db0565b5b81525090565b5b8082111561098f576000816000905550600101610977565b5090565b6000604051905090565b600080fd5b600080fd5b600080fd5b600080fd5b6000601f19601f8301169050919050565b7f4e487b7100000000000000000000000000000000000000000000000000000000600052604160045260246000fd5b6109fa826109b1565b810181811067ffffffffffffffff82111715610a1957610a186109c2565b5b80604052505050565b6000610a2c610993565b9050610a3882826109f1565b919050565b600067ffffffffffffffff821115610a5857610a576109c2565b5b610a61826109b1565b9050602081019050919050565b82818337600083830152505050565b6000610a90610a8b84610a3d565b610a22565b905082815260208101848484011115610aac57610aab6109ac565b5b610ab7848285610a6e565b509392505050565b600082601f830112610ad457610ad36109a7565b5b8135610ae4848260208601610a7d565b91505092915050565b6000819050919050565b610b0081610aed565b8114610b0b57600080fd5b50565b600081359050610b1d81610af7565b92915050565b60008060408385031215610b3a57610b3961099d565b5b600083013567ffffffffffffffff811115610b5857610b576109a2565b5b610b6485828601610abf565b9250506020610b7585828601610b0e565b9150509250929050565b600060208284031215610b9557610b9461099d565b5b600082013567ffffffffffffffff811115610bb357610bb26109a2565b5b610bbf84828501610abf565b91505092915050565b60058110610bd557600080fd5b50565b600081359050610be781610bc8565b92915050565b600060208284031215610c0357610c0261099d565b5b6000610c1184828501610bd8565b91505092915050565b600081519050919050565b600082825260208201905092915050565b6000819050602082019050919050565b600081519050919050565b600082825260208201905092915050565b60005b83811015610c80578082015181840152602081019050610c65565b83811115610c8f576000848401525b50505050565b6000610ca082610c46565b610caa8185610c51565b9350610cba818560208601610c62565b610cc3816109b1565b840191505092915050565b610cd781610aed565b82525050565b60006040830160008301518482036000860152610cfa8282610c95565b9150506020830151610d0f6020860182610cce565b508091505092915050565b6000610d268383610cdd565b905092915050565b6000602082019050919050565b6000610d4682610c1a565b610d508185610c25565b935083602082028501610d6285610c36565b8060005b85811015610d9e5784840389528151610d7f8582610d1a565b9450610d8a83610d2e565b925060208a01995050600181019050610d66565b50829750879550505050505092915050565b7f4e487b7100000000000000000000000000000000000000000000000000000000600052602160045260246000fd5b60058110610df057610def610db0565b5b50565b6000819050610e0182610ddf565b919050565b6000610e1182610df3565b9050919050565b610e2181610e06565b82525050565b600060c0830160008301518482036000860152610e448282610d3b565b91505060208301518482036020860152610e5e8282610c95565b91505060408301518482036040860152610e788282610c95565b91505060608301518482036060860152610e928282610c95565b91505060808301518482036080860152610eac8282610c95565b91505060a0830151610ec160a0860182610e18565b508091505092915050565b60006020820190508181036000830152610ee68184610e27565b905092915050565b600082825260208201905092915050565b6000610f0a82610c46565b610f148185610eee565b9350610f24818560208601610c62565b610f2d816109b1565b840191505092915050565b60006020820190508181036000830152610f528184610eff565b905092915050565b60008060408385031215610f7157610f7061099d565b5b600083013567ffffffffffffffff811115610f8f57610f8e6109a2565b5b610f9b85828601610abf565b925050602083013567ffffffffffffffff811115610fbc57610fbb6109a2565b5b610fc885828601610abf565b9150509250929050565b7f596f7520617265206e6f74207468652063757272656e74206f776e6572210000600082015250565b6000611008601e83610eee565b915061101382610fd2565b602082019050919050565b6000602082019050818103600083015261103781610ffb565b9050919050565b7f4e487b7100000000000000000000000000000000000000000000000000000000600052602260045260246000fd5b6000600282049050600182168061108557607f821691505b602082108114156110995761109861103e565b5b50919050565b7f4e487b7100000000000000000000000000000000000000000000000000000000600052601160045260246000fd5b60006110d982610aed565b91506110e483610aed565b9250828210156110f7576110f661109f565b5b828203905092915050565b7f4e487b7100000000000000000000000000000000000000000000000000000000600052603260045260246000fdfea2646970667358221220fe3db0e854e3a1cde8afa8a716b0422858ebfbe70413842f9c1107c69f869ab464736f6c63430008090033a2646970667358221220339c1da9d1b692a164d51c204cf1a04993946b696e2cbef31904996d9451222664736f6c63430008090033",
  "immutableReferences": {},
  "source": "// SPDX-License-Identifier: GPL-3.0\npragma solidity ^0.8.9;\n\nimport './ProtectedItem.sol';\n\ncontract ItemFactory {\n    address[] public items;\n\n    event AddNewItem(address itemAddress);\n\n    function createNewItem(\n        string memory ipfsHash,\n        string memory name,\n        string memory location,\n        string memory description,\n        string memory ownerAddress,\n        uint256 price\n    ) public {\n        address newItem = address(\n            new ProtectedItem(ipfsHash, name, location, description, ownerAddress, price)\n        );\n\n        items.push(newItem);\n\n        emit AddNewItem(newItem);\n    }\n\n    function getAllItems() public view returns (address[] memory) {\n        return items;\n    }\n}\n",
  "sourcePath": "D:\\AUT\\Blockchain and Cryptocurrencies\\Auction-Hosting-Guarantee\\src\\ethereum\\contracts\\ItemFactory.sol",
  "compiler": {
    "name": "solc",
    "version": "0.8.9+commit.e5eed63a.Emscripten.clang"
  },
  "schemaVersion": "3.4.3",
  "updatedAt": "2021-10-09T03:52:56.704Z",
  "networkType": "ethereum",
  "devdoc": {
    "kind": "dev",
    "methods": {},
    "version": 1
  },
  "userdoc": {
    "kind": "user",
    "methods": {},
    "version": 1
  }
}