{
  "contractName": "ProtectedItem",
  "abi": [
    {
      "inputs": [
        {
          "internalType": "string",
          "name": "ipfsHash",
          "type": "string"
        },
        {
          "internalType": "string",
          "name": "name",
          "type": "string"
        },
        {
          "internalType": "string",
          "name": "location",
          "type": "string"
        },
        {
          "internalType": "string",
          "name": "description",
          "type": "string"
        },
        {
          "internalType": "string",
          "name": "ownerAddress",
          "type": "string"
        },
        {
          "internalType": "uint256",
          "name": "price",
          "type": "uint256"
        }
      ],
      "stateMutability": "nonpayable",
      "type": "constructor"
    },
    {
      "inputs": [
        {
          "internalType": "string",
          "name": "ownerAddress",
          "type": "string"
        }
      ],
      "name": "getDetails",
      "outputs": [
        {
          "components": [
            {
              "components": [
                {
                  "internalType": "string",
                  "name": "owner",
                  "type": "string"
                },
                {
                  "internalType": "uint256",
                  "name": "price",
                  "type": "uint256"
                }
              ],
              "internalType": "struct ProtectedItem.ItemOwner[]",
              "name": "purchasedHistory",
              "type": "tuple[]"
            },
            {
              "internalType": "string",
              "name": "ipfsHash",
              "type": "string"
            },
            {
              "internalType": "string",
              "name": "name",
              "type": "string"
            },
            {
              "internalType": "string",
              "name": "location",
              "type": "string"
            },
            {
              "internalType": "string",
              "name": "description",
              "type": "string"
            },
            {
              "internalType": "enum ProtectedItem.Status",
              "name": "status",
              "type": "uint8"
            }
          ],
          "internalType": "struct ProtectedItem.ItemDetails",
          "name": "",
          "type": "tuple"
        }
      ],
      "stateMutability": "view",
      "type": "function"
    },
    {
      "inputs": [],
      "name": "getCurrentOwnerAddress",
      "outputs": [
        {
          "internalType": "string",
          "name": "",
          "type": "string"
        }
      ],
      "stateMutability": "view",
      "type": "function"
    },
    {
      "inputs": [
        {
          "internalType": "string",
          "name": "_ownerAddress",
          "type": "string"
        },
        {
          "internalType": "uint256",
          "name": "_price",
          "type": "uint256"
        },
        {
          "internalType": "string",
          "name": "_location",
          "type": "string"
        }
      ],
      "name": "updateItemToBid",
      "outputs": [],
      "stateMutability": "nonpayable",
      "type": "function"
    },
    {
      "inputs": [
        {
          "internalType": "string",
          "name": "_ownerAddress",
          "type": "string"
        },
        {
          "internalType": "uint256",
          "name": "_price",
          "type": "uint256"
        },
        {
          "internalType": "string",
          "name": "_shippingCode",
          "type": "string"
        },
        {
          "internalType": "string",
          "name": "_confirmationCode",
          "type": "string"
        }
      ],
      "name": "updateItemAfterBid",
      "outputs": [],
      "stateMutability": "nonpayable",
      "type": "function"
    },
    {
      "inputs": [
        {
          "internalType": "string",
          "name": "_ownerAddress",
          "type": "string"
        },
        {
          "internalType": "uint256",
          "name": "_price",
          "type": "uint256"
        }
      ],
      "name": "updatePurchasedHistory",
      "outputs": [],
      "stateMutability": "nonpayable",
      "type": "function"
    },
    {
      "inputs": [
        {
          "internalType": "string",
          "name": "_shippingCode",
          "type": "string"
        },
        {
          "internalType": "string",
          "name": "_location",
          "type": "string"
        }
      ],
      "name": "updateLocation",
      "outputs": [],
      "stateMutability": "nonpayable",
      "type": "function"
    },
    {
      "inputs": [
        {
          "internalType": "string",
          "name": "_confirmationCode",
          "type": "string"
        }
      ],
      "name": "receiveItem",
      "outputs": [],
      "stateMutability": "nonpayable",
      "type": "function"
    }
  ],
  "bytecode": "0x60806040523480156200001157600080fd5b5060405162001b5238038062001b528339818101604052810190620000379190620003ef565b84600060020190805190602001906200005292919062000167565b5083600060030190805190602001906200006e92919062000167565b5085600060010190805190602001906200008a92919062000167565b508260006004019080519060200190620000a692919062000167565b506004600060050160006101000a81548160ff02191690836004811115620000d357620000d262000526565b5b0217905550620000ea8282620000f660201b60201c565b505050505050620005ba565b60008001604051806040016040528084815260200183815250908060018154018082558091505060019003906000526020600020906002020160009091909190915060008201518160000190805190602001906200015692919062000167565b506020820151816001015550505050565b828054620001759062000584565b90600052602060002090601f016020900481019282620001995760008555620001e5565b82601f10620001b457805160ff1916838001178555620001e5565b82800160010185558215620001e5579182015b82811115620001e4578251825591602001919060010190620001c7565b5b509050620001f49190620001f8565b5090565b5b8082111562000213576000816000905550600101620001f9565b5090565b6000604051905090565b600080fd5b600080fd5b600080fd5b600080fd5b6000601f19601f8301169050919050565b7f4e487b7100000000000000000000000000000000000000000000000000000000600052604160045260246000fd5b620002808262000235565b810181811067ffffffffffffffff82111715620002a257620002a162000246565b5b80604052505050565b6000620002b762000217565b9050620002c5828262000275565b919050565b600067ffffffffffffffff821115620002e857620002e762000246565b5b620002f38262000235565b9050602081019050919050565b60005b838110156200032057808201518184015260208101905062000303565b8381111562000330576000848401525b50505050565b60006200034d6200034784620002ca565b620002ab565b9050828152602081018484840111156200036c576200036b62000230565b5b6200037984828562000300565b509392505050565b600082601f8301126200039957620003986200022b565b5b8151620003ab84826020860162000336565b91505092915050565b6000819050919050565b620003c981620003b4565b8114620003d557600080fd5b50565b600081519050620003e981620003be565b92915050565b60008060008060008060c087890312156200040f576200040e62000221565b5b600087015167ffffffffffffffff81111562000430576200042f62000226565b5b6200043e89828a0162000381565b965050602087015167ffffffffffffffff81111562000462576200046162000226565b5b6200047089828a0162000381565b955050604087015167ffffffffffffffff81111562000494576200049362000226565b5b620004a289828a0162000381565b945050606087015167ffffffffffffffff811115620004c657620004c562000226565b5b620004d489828a0162000381565b935050608087015167ffffffffffffffff811115620004f857620004f762000226565b5b6200050689828a0162000381565b92505060a06200051989828a01620003d8565b9150509295509295509295565b7f4e487b7100000000000000000000000000000000000000000000000000000000600052602160045260246000fd5b7f4e487b7100000000000000000000000000000000000000000000000000000000600052602260045260246000fd5b600060028204905060018216806200059d57607f821691505b60208210811415620005b457620005b362000555565b5b50919050565b61158880620005ca6000396000f3fe608060405234801561001057600080fd5b506004361061007d5760003560e01c8063984dd9c51161005b578063984dd9c5146100ea578063b0d9e1a214610106578063df4f0e5014610124578063f6ddac74146101405761007d565b8063011267d2146100825780631328fd8f1461009e57806352990375146100ce575b600080fd5b61009c60048036038101906100979190610c30565b61015c565b005b6100b860048036038101906100b39190610c8c565b6101cb565b6040516100c59190610f87565b60405180910390f35b6100e860048036038101906100e39190610c8c565b6105be565b005b61010460048036038101906100ff9190610fa9565b61069c565b005b61010e610708565b60405161011b91906110ae565b60405180910390f35b61013e600480360381019061013991906110d0565b6107d8565b005b61015a6004803603810190610155919061115b565b6108bd565b005b60008001604051806040016040528084815260200183815250908060018154018082558091505060019003906000526020600020906002020160009091909190915060008201518160000190805190602001906101ba9291906109b5565b506020820151816001015550505050565b6101d3610a3b565b816101dc610708565b8051906020012081805190602001201461022b576040517f08c379a00000000000000000000000000000000000000000000000000000000081526004016102229061121f565b60405180910390fd5b60006040518060c001604052908160008201805480602002602001604051908101604052809291908181526020016000905b8282101561032b57838290600052602060002090600202016040518060400160405290816000820180546102909061126e565b80601f01602080910402602001604051908101604052809291908181526020018280546102bc9061126e565b80156103095780601f106102de57610100808354040283529160200191610309565b820191906000526020600020905b8154815290600101906020018083116102ec57829003601f168201915b505050505081526020016001820154815250508152602001906001019061025d565b5050505081526020016001820180546103439061126e565b80601f016020809104026020016040519081016040528092919081815260200182805461036f9061126e565b80156103bc5780601f10610391576101008083540402835291602001916103bc565b820191906000526020600020905b81548152906001019060200180831161039f57829003601f168201915b505050505081526020016002820180546103d59061126e565b80601f01602080910402602001604051908101604052809291908181526020018280546104019061126e565b801561044e5780601f106104235761010080835404028352916020019161044e565b820191906000526020600020905b81548152906001019060200180831161043157829003601f168201915b505050505081526020016003820180546104679061126e565b80601f01602080910402602001604051908101604052809291908181526020018280546104939061126e565b80156104e05780601f106104b5576101008083540402835291602001916104e0565b820191906000526020600020905b8154815290600101906020018083116104c357829003601f168201915b505050505081526020016004820180546104f99061126e565b80601f01602080910402602001604051908101604052809291908181526020018280546105259061126e565b80156105725780601f1061054757610100808354040283529160200191610572565b820191906000526020600020905b81548152906001019060200180831161055557829003601f168201915b505050505081526020016005820160009054906101000a900460ff1660048111156105a05761059f610e6b565b5b60048111156105b2576105b1610e6b565b5b81525050915050919050565b80808051906020012060076040516105d6919061133f565b60405180910390201461061e576040517f08c379a0000000000000000000000000000000000000000000000000000000008152600401610615906113c8565b60405180910390fd5b6002600060050160006101000a81548160ff0219169083600481111561064757610646610e6b565b5b021790555060405180602001604052806000815250600790805190602001906106719291906109b5565b5060405180602001604052806000815250600690805190602001906106979291906109b5565b505050565b6106a6848461015c565b81600690805190602001906106bc9291906109b5565b5080600790805190602001906106d39291906109b5565b506001600060050160006101000a81548160ff021916908360048111156106fd576106fc610e6b565b5b021790555050505050565b6060600080600001600160008001805490506107249190611417565b815481106107355761073461144b565b5b906000526020600020906002020160000180546107519061126e565b80601f016020809104026020016040519081016040528092919081815260200182805461077d9061126e565b80156107ca5780601f1061079f576101008083540402835291602001916107ca565b820191906000526020600020905b8154815290600101906020018083116107ad57829003601f168201915b505050505090508091505090565b826107e1610708565b80519060200120818051906020012014610830576040517f08c379a00000000000000000000000000000000000000000000000000000000081526004016108279061121f565b60405180910390fd5b8260008001600160008001805490506108499190611417565b8154811061085a5761085961144b565b5b9060005260206000209060020201600101819055506004600060050160006101000a81548160ff0219169083600481111561089857610897610e6b565b5b021790555081600060030190805190602001906108b69291906109b5565b5050505050565b81600160048111156108d2576108d1610e6b565b5b600060050160009054906101000a900460ff1660048111156108f7576108f6610e6b565b5b14610937576040517f08c379a000000000000000000000000000000000000000000000000000000000815260040161092e906114c6565b60405180910390fd5b8080519060200120600660405161094e919061133f565b604051809103902014610996576040517f08c379a000000000000000000000000000000000000000000000000000000000815260040161098d90611532565b60405180910390fd5b81600060030190805190602001906109af9291906109b5565b50505050565b8280546109c19061126e565b90600052602060002090601f0160209004810192826109e35760008555610a2a565b82601f106109fc57805160ff1916838001178555610a2a565b82800160010185558215610a2a579182015b82811115610a29578251825591602001919060010190610a0e565b5b509050610a379190610a83565b5090565b6040518060c00160405280606081526020016060815260200160608152602001606081526020016060815260200160006004811115610a7d57610a7c610e6b565b5b81525090565b5b80821115610a9c576000816000905550600101610a84565b5090565b6000604051905090565b600080fd5b600080fd5b600080fd5b600080fd5b6000601f19601f8301169050919050565b7f4e487b7100000000000000000000000000000000000000000000000000000000600052604160045260246000fd5b610b0782610abe565b810181811067ffffffffffffffff82111715610b2657610b25610acf565b5b80604052505050565b6000610b39610aa0565b9050610b458282610afe565b919050565b600067ffffffffffffffff821115610b6557610b64610acf565b5b610b6e82610abe565b9050602081019050919050565b82818337600083830152505050565b6000610b9d610b9884610b4a565b610b2f565b905082815260208101848484011115610bb957610bb8610ab9565b5b610bc4848285610b7b565b509392505050565b600082601f830112610be157610be0610ab4565b5b8135610bf1848260208601610b8a565b91505092915050565b6000819050919050565b610c0d81610bfa565b8114610c1857600080fd5b50565b600081359050610c2a81610c04565b92915050565b60008060408385031215610c4757610c46610aaa565b5b600083013567ffffffffffffffff811115610c6557610c64610aaf565b5b610c7185828601610bcc565b9250506020610c8285828601610c1b565b9150509250929050565b600060208284031215610ca257610ca1610aaa565b5b600082013567ffffffffffffffff811115610cc057610cbf610aaf565b5b610ccc84828501610bcc565b91505092915050565b600081519050919050565b600082825260208201905092915050565b6000819050602082019050919050565b600081519050919050565b600082825260208201905092915050565b60005b83811015610d3b578082015181840152602081019050610d20565b83811115610d4a576000848401525b50505050565b6000610d5b82610d01565b610d658185610d0c565b9350610d75818560208601610d1d565b610d7e81610abe565b840191505092915050565b610d9281610bfa565b82525050565b60006040830160008301518482036000860152610db58282610d50565b9150506020830151610dca6020860182610d89565b508091505092915050565b6000610de18383610d98565b905092915050565b6000602082019050919050565b6000610e0182610cd5565b610e0b8185610ce0565b935083602082028501610e1d85610cf1565b8060005b85811015610e595784840389528151610e3a8582610dd5565b9450610e4583610de9565b925060208a01995050600181019050610e21565b50829750879550505050505092915050565b7f4e487b7100000000000000000000000000000000000000000000000000000000600052602160045260246000fd5b60058110610eab57610eaa610e6b565b5b50565b6000819050610ebc82610e9a565b919050565b6000610ecc82610eae565b9050919050565b610edc81610ec1565b82525050565b600060c0830160008301518482036000860152610eff8282610df6565b91505060208301518482036020860152610f198282610d50565b91505060408301518482036040860152610f338282610d50565b91505060608301518482036060860152610f4d8282610d50565b91505060808301518482036080860152610f678282610d50565b91505060a0830151610f7c60a0860182610ed3565b508091505092915050565b60006020820190508181036000830152610fa18184610ee2565b905092915050565b60008060008060808587031215610fc357610fc2610aaa565b5b600085013567ffffffffffffffff811115610fe157610fe0610aaf565b5b610fed87828801610bcc565b9450506020610ffe87828801610c1b565b935050604085013567ffffffffffffffff81111561101f5761101e610aaf565b5b61102b87828801610bcc565b925050606085013567ffffffffffffffff81111561104c5761104b610aaf565b5b61105887828801610bcc565b91505092959194509250565b600082825260208201905092915050565b600061108082610d01565b61108a8185611064565b935061109a818560208601610d1d565b6110a381610abe565b840191505092915050565b600060208201905081810360008301526110c88184611075565b905092915050565b6000806000606084860312156110e9576110e8610aaa565b5b600084013567ffffffffffffffff81111561110757611106610aaf565b5b61111386828701610bcc565b935050602061112486828701610c1b565b925050604084013567ffffffffffffffff81111561114557611144610aaf565b5b61115186828701610bcc565b9150509250925092565b6000806040838503121561117257611171610aaa565b5b600083013567ffffffffffffffff8111156111905761118f610aaf565b5b61119c85828601610bcc565b925050602083013567ffffffffffffffff8111156111bd576111bc610aaf565b5b6111c985828601610bcc565b9150509250929050565b7f596f7520617265206e6f74207468652063757272656e74206f776e6572210000600082015250565b6000611209601e83611064565b9150611214826111d3565b602082019050919050565b60006020820190508181036000830152611238816111fc565b9050919050565b7f4e487b7100000000000000000000000000000000000000000000000000000000600052602260045260246000fd5b6000600282049050600182168061128657607f821691505b6020821081141561129a5761129961123f565b5b50919050565b600081905092915050565b60008190508160005260206000209050919050565b600081546112cd8161126e565b6112d781866112a0565b945060018216600081146112f2576001811461130357611336565b60ff19831686528186019350611336565b61130c856112ab565b60005b8381101561132e5781548189015260018201915060208101905061130f565b838801955050505b50505092915050565b600061134b82846112c0565b915081905092915050565b7f54686520636f6e6669726d6174696f6e20636f646520697320696e76616c696460008201527f2100000000000000000000000000000000000000000000000000000000000000602082015250565b60006113b2602183611064565b91506113bd82611356565b604082019050919050565b600060208201905081810360008301526113e1816113a5565b9050919050565b7f4e487b7100000000000000000000000000000000000000000000000000000000600052601160045260246000fd5b600061142282610bfa565b915061142d83610bfa565b9250828210156114405761143f6113e8565b5b828203905092915050565b7f4e487b7100000000000000000000000000000000000000000000000000000000600052603260045260246000fd5b7f546865206974656d206973206e6f742073686970706564210000000000000000600082015250565b60006114b0601883611064565b91506114bb8261147a565b602082019050919050565b600060208201905081810360008301526114df816114a3565b9050919050565b7f546865207368697070696e6720636f646520697320696e76616c696421000000600082015250565b600061151c601d83611064565b9150611527826114e6565b602082019050919050565b6000602082019050818103600083015261154b8161150f565b905091905056fea264697066735822122023cc34461d2a47cc4a93c8459191dae93e07acc2a28894be6efe3b153240765c64736f6c63430008090033",
  "immutableReferences": {},
  "source": "// SPDX-License-Identifier: GPL-3.0\npragma solidity ^0.8.9;\n\ncontract ProtectedItem {\n    enum Status {\n        IN_AUCTION,\n        SHIPPING,\n        RECEIVED,\n        IDLE,\n        READY_TO_BID\n    }\n\n    struct ItemOwner {\n        string owner;\n        uint256 price;\n    }\n\n    struct ItemDetails {\n        ItemOwner[] purchasedHistory;\n        string ipfsHash;\n        string name;\n        string location;\n        string description;\n        Status status;\n    }\n\n    ItemDetails details;\n    string shippingCode;\n    string confirmationCode;\n\n    constructor(\n        string memory ipfsHash,\n        string memory name,\n        string memory location,\n        string memory description,\n        string memory ownerAddress,\n        uint256 price\n    ) {\n        details.name = name;\n        details.location = location;\n        details.ipfsHash = ipfsHash;\n        details.description = description;\n        details.status = Status.READY_TO_BID;\n\n        updatePurchasedHistory(ownerAddress, price);\n    }\n\n    function getDetails(string memory ownerAddress)\n        public\n        view\n        ownerOnly(ownerAddress)\n        returns (ItemDetails memory)\n    {\n        return details;\n    }\n\n    function getCurrentOwnerAddress() public view returns (string memory) {\n        string memory ownerAddress = details\n            .purchasedHistory[details.purchasedHistory.length - 1]\n            .owner;\n\n        return ownerAddress;\n    }\n\n    function updateItemToBid(\n        string memory _ownerAddress,\n        uint256 _price,\n        string memory _location\n    ) public ownerOnly(_ownerAddress) {\n        details.purchasedHistory[details.purchasedHistory.length - 1].price = _price;\n        details.status = Status.READY_TO_BID;\n        details.location = _location;\n    }\n\n    function updateItemAfterBid(\n        string memory _ownerAddress,\n        uint256 _price,\n        string memory _shippingCode,\n        string memory _confirmationCode\n    ) public {\n        updatePurchasedHistory(_ownerAddress, _price);\n        shippingCode = _shippingCode;\n        confirmationCode = _confirmationCode;\n        details.status = Status.SHIPPING;\n    }\n\n    function updatePurchasedHistory(string memory _ownerAddress, uint256 _price) public {\n        details.purchasedHistory.push(ItemOwner(_ownerAddress, _price));\n    }\n\n    function updateLocation(string memory _shippingCode, string memory _location)\n        public\n        shippingOnly(_shippingCode)\n    {\n        details.location = _location;\n    }\n\n    function receiveItem(string memory _confirmationCode)\n        public\n        validConfirmationCode(_confirmationCode)\n    {\n        details.status = Status.RECEIVED;\n        confirmationCode = '';\n        shippingCode = '';\n    }\n\n    modifier shippingOnly(string memory _shippingCode) {\n        require(details.status == Status.SHIPPING, 'The item is not shipped!');\n        require(\n            keccak256(bytes(shippingCode)) == keccak256(bytes(_shippingCode)),\n            'The shipping code is invalid!'\n        );\n        _;\n    }\n\n    modifier validConfirmationCode(string memory _confirmationCode) {\n        require(\n            keccak256(bytes(confirmationCode)) == keccak256(bytes(_confirmationCode)),\n            'The confirmation code is invalid!'\n        );\n        _;\n    }\n\n    modifier ownerOnly(string memory _ownerAddress) {\n        require(\n            keccak256(bytes(_ownerAddress)) == keccak256(bytes(getCurrentOwnerAddress())),\n            'You are not the current owner!'\n        );\n        _;\n    }\n}\n",
  "sourcePath": "D:\\AUT\\Blockchain and Cryptocurrencies\\Auction-Hosting-Guarantee\\src\\ethereum\\contracts\\ProtectedItem.sol",
  "compiler": {
    "name": "solc",
    "version": "0.8.9+commit.e5eed63a.Emscripten.clang"
  },
  "schemaVersion": "3.4.3",
  "updatedAt": "2021-10-21T14:21:17.669Z",
  "devdoc": {
    "kind": "dev",
    "methods": {},
    "version": 1
  },
  "userdoc": {
    "kind": "user",
    "methods": {},
    "version": 1
  }
}